:020000040800F2
:10000000F01B002045010008992F0008C32A0008B2
:10001000352F0008FD030008F15200080000000021
:10002000000000000000000000000000353400085F
:100030009F0400080000000091320008C13700084A
:100040005F0100085F0100085F0100085F01000810
:100050005F0100085F0100085F0100085F01000800
:100060005F0100085F0100085F0100085F010008F0
:100070005F010008690400085F0100085F010008D3
:100080005F0100085F0100085F0100085F010008D0
:10009000395200085F0100085F0100085F01000895
:1000A0005F0100085F0100085F0100085F010008B0
:1000B0005F0100085F0100085F0100085F010008A0
:1000C0005F0100085F0100085F0100085F01000890
:1000D0005F010008753D0008813D00085F010008D0
:1000E0005F0100085F0100085F0100085F01000870
:1000F0005F0100085F0100085F0100085F01000860
:100100005F0100085F0100085F0100085F0100084F
:100110005F0100085F010008FD3800085F0100086A
:100120005F0100085F0100085F0100085F0100082F
:10013000DFF80CD000F04CF80048004739530008B5
:10014000F01B00200648804706480047FEE7FEE710
:10015000FEE7FEE7FEE7FEE7FEE7FEE7FEE7FEE777
:10016000FB38000831010008202A04DB203A21FA7C
:1001700002F00021704721FA02F3D040C2F12002C0
:10018000914008431946704740EA01039B0703D09A
:1001900009E008C9121F08C0042AFAD203E011F8C6
:1001A000013B00F8013B521EF9D27047D2B201E088
:1001B00000F8012B491EFBD270470022F6E710B56C
:1001C00013460A4604461946FFF7F0FF204610BDC5
:1001D000064C074D06E0E06840F0010394E8070094
:1001E00098471034AC42F6D3FFF7A6FF84550008B9
:1001F000A455000870B501EB020410F8015B15F07E
:10020000070301D110F8013B2A1106D110F8012B88
:1002100003E010F8016B01F8016B5B1EF9D12B07AD
:1002200005D40023521E0FD401F8013BFAE710F861
:10023000013B02F10202A1EB030303E013F8015BAF
:1002400001F8015B521EF9D5A142D6D3002070BD42
:1002500070B5044600688168C943C9071BD181682D
:1002600021F00101816001F08FF805460EE001F0F8
:100270008BF8401B022809D9A06A40F01000A06248
:10028000E06A40F00100E062012070BD20688068F3
:10029000C043C007EBD0002070BD000010B50400C3
:1002A0001DD000F0D7F8184B20B1184A117801433F
:1002B000117023E0204600F0C4F838B114490A78E0
:1002C00002430A70187840F002001AE0204600F05D
:1002D000B2F828B10F490A78002A00D1087010BD81
:1002E0000D4A0021505C20B1491CC9B26C29F9D3D8
:1002F00010BD0A48545400788142F9D2187840F071
:100300000100187010BD0000000000200100002056
:10031000020000200C000020D60100200300002075
:100320002DE9F0472E4F00252E4938782E4C022813
:1003300008D0607900281CD00D607D70002003F08B
:10034000D3F943E028482279DFF8A0800089284EBD
:100350004FF00109052A3BD2DFE802F0030D171F19
:10036000330084F805907D70012003F0BDF923E08F
:100370002071BDE8F087718800F002FA6428F8D98E
:100380007088208187F8019018E0718800F0F8F9F2
:100390003228EED9A8F8005010E0B8F80000142870
:1003A000E7D91448056045600D607D70002003F0BA
:1003B0009BF9002003F082F9708820812079401C8D
:1003C000D6E7718800F0DCF93228D2D92571D0E760
:1003D0007D70002003F088F9708820810420C7E731
:1003E0000D00002018000020240000200A0000203A
:1003F000C40100201000002000F052B801F066F89F
:10040000FCE770B505464FF6FF7000234AF2010481
:100410000EE0EA5C50400022C60702D084EA500099
:1004200000E04008521CD2B2082AF5D35B1C9BB2F4
:100430008B42EED370BDA0F16E01092900D90020D6
:100440007047C838062803D801218140C8B27047D8
:1004500000207047E038072803D801218140C8B246
:100460007047002070470000014800F03BBC0000CE
:100470005008002030B590F840500124AC40C56BC6
:100480006C60046863604368102B036803D0996054
:100490000068C26030BD9A600068C16030BD7047BE
:1004A0002DE9F003DFF808C1404F00224FF0773507
:1004B0000CF5BE764FF4BD781CF8021028460B06EA
:1004C00000D538464B0601D580F004008B0601D5D7
:1004D00080F48040CB0601D580F480600B0701D505
:1004E00080F480004B0701D580F480208B0701D574
:1004F00080F08040C90701D080F080600CEB0203DF
:1005000046F8220093F87E1028460C0600D538469F
:100510004C0601D580F004008C0601D580F48040A3
:10052000CC0601D580F480600C0701D580F48000F2
:100530004C0701D580F480208C0701D580F08040E5
:10054000C90701D080F0806006EB8204606093F8F8
:10055000FC1028460B0600D538464B0601D580F026
:1005600004008B0601D580F48040CB0601D580F4D1
:1005700080600B0701D580F480004B0701D580F423
:1005800080208B0701D580F08040C90701D080F022
:100590008060D21C92B2A06042458DD3BDE8F003CA
:1005A0004FF4BD620349044801F06EBF3777777797
:1005B00094080020100A00202007002072B600F0E6
:1005C00085FFFCE706490020C8610648016941F043
:1005D00004010161016941F04001016170470000BF
:1005E000D017002000200240064A0021D1610649B0
:1005F0000A6942F002020A614861086940F040005D
:1006000008617047D017002000200240044B0022F0
:10061000DA61044A136943F00103136101807047F2
:10062000D01700200020024014490020CA68D306D9
:10063000134A04D5D06940F00200D0611020CB6885
:100640005B0705D5D36943F00103D36140F0040093
:10065000CB69DB0707D0D36943F00403D361CA69D0
:1006600022F00102CA61A0F58072013A04D1C86982
:1006700020F00100C8617047C86070470020024048
:10068000D017002070B5044600F07EFE0546114EDE
:1006900009E0601C07D024B100F076FE401BA042A8
:1006A00001D9032070BDF068C007F2D1F068800660
:1006B00001D52020F060F068C00605D4F069C007BD
:1006C00002D1F068400703D5FFF7AEFF012070BDEF
:1006D000002070BD0020024010B50220074A4FF6EE
:1006E000FF738402111A0988994201D0101A10BDB3
:1006F000801CA042F6D3024810BD00000000040890
:1007000000F80308164810B581881648174C018078
:10071000154900200870E16A8A78042A00D9042269
:10072000C91C1348FFF730FD12480078022815D184
:100730000F494878C20604D50F4A0123137009787F
:10074000517080060AD594F84100202806D1A28C69
:10075000BDE810400949054802F093B910BD0000FA
:10076000C40100200800002004000020C007002071
:10077000180000200D000020100000208202002040
:10078000884204D94EF66022101A084400E0081A84
:1007900080B270472DE9F84F044600200090DFF842
:1007A00078815E4898F801100078814203D088F87B
:1007B000010002F06FFD5A4E00214FF6FF7C06F15A
:1007C000C607002360461A4602EBC20506EB450544
:1007D000521C35F8115092B228402B430B2AF3D308
:1007E00037F8112002431A4027F81120491CC9B2DA
:1007F0000929E6D3DFF82891002509F1D8094FF03F
:10080000010ABB4639F815703BF8150047403FD048
:1008100088F800A0002627FA06F0C00734D03BF87D
:100820001500F040C0071AD039F815100AFA06F082
:10083000014305EB450004EB800029F81510805DAD
:10084000FFF72CFD374898F802200078024388F81B
:100850000220C8B13448007801285AD014E039F891
:1008600015100AFA06F205EB4500914304EB8000EF
:1008700029F81510805D02F03FFF2A4998F8022000
:1008800009780A4388F80220761CF6B20C2EC2D3EF
:100890003BF8150008B1012000906D1CEDB2092D48
:1008A000B0D321480024007802281BD11B481F4BDD
:1008B0000178585CB0B1002012E01A5C72B95A5C41
:1008C0001A54084605E01A1852781A541AB1401CF6
:1008D000C0B26B28F7D31C545A5C1AB1401CC0B28A
:1008E0008842EAD30098002813D198F800004546C2
:1008F00000280ED00E482C706C2104700D48047036
:100900000D4804700948FFF758FC0648A9780170A3
:10091000AC70BDE8F88F000030000020030000201C
:1009200006060020000000200D000020D601002057
:1009300001000020020000200C000020F8B5002378
:10094000009390F824201C46012A12D0012280F83E
:1009500024204A681F26072A0DD205686F6B521E95
:1009600002EB82029640B7430E68964037436F63AE
:1009700019E00220F8BD05680D2A0AD22F6BD21F9C
:1009800002EB82029640B7430E68964037432F63CE
:1009900009E0EF6A0D3A02EB82029640B7430E6817
:1009A00096403743EF620A68072605680A2A0AD389
:1009B000EF680A3A02EB42029640B7438E689640CF
:1009C0003743EF6008E02F6902EB42029640B743DD
:1009D0008E68964037432F610A68102A01D0112A89
:1009E00020D1124D0268AA4217D195682D0219D460
:1009F000956845F4000595600968102912D10C49E5
:100A00000C4A0968B1FBF2F101EB8101490000E0F9
:100A1000491E00910029FBD104E0816A41F02001C8
:100A20008162012380F824401846F8BD002401406B
:100A30009C00002040420F002DE9F04104004FF0DF
:100A4000000514D0A06A002628B9E66284F8246064
:100A5000204600F083F82046FFF7FAFBA16A01F078
:100A60001001014304D0A06A40F01000A0626AE0C7
:100A7000A16A21F4885141F00201A162334923683F
:100A80008B42E16904D1B1F5402F01D14FF400212F
:100A9000277B4FF4807C41EA470261680A43A168E2
:100AA000614508D0012906D0002194F814E0BEF178
:100AB000010F02D00AE06146F7E7C7B1A76A47F025
:100AC0002007A762E76A47F00107E7625F6827F43B
:100AD00069470F435F6021688B681D4F3B4013439C
:100AE0008B60A16861450BD0012909D00CE0DFF8CB
:100AF00064E0A7690EEB47370F4347F40061E5E771
:100B0000218A0D05A5F580152168CB6A23F47003B1
:100B10002B43CB62216889680F4B1940914208D161
:100B2000E662A16A21F0020141F00101A162BDE883
:100B3000F081A06A20F0020040F01000A062E06A9C
:100B400040F00100E0620120F1E70000003C0140BC
:100B5000FDF7E1FF00E0FFFFFE0E1FFF00B585B0CF
:100B60000021009101910291039100680E49884291
:100B700017D10E48816941F400718161816901F4E6
:100B800000710491816941F00401816180696946C5
:100B900000F004000490032000900190044800F04D
:100BA000F1FA05B000BD0000002401400010024031
:100BB000000801402DE9F05F90F82110002402297F
:100BC00003D004218163012485E001680A6822F0D2
:100BD0000E020A6001680A6822F001020A603F4EB4
:100BE0003E4FB215DFF8F4C0DFF8F090DFF8ECA06C
:100BF000DFF8E8B0DFF8E4E00168783F13011502A0
:100C0000ACF1640CA9F15009AAF13C0AABF1280B34
:100C1000AEF1140E4FF48018B14227D9B9420ED06C
:100C2000614512D049451DD0514518D0594518D0BD
:100C3000714501D1424615E0294EB14201D1012250
:100C400010E0274E1436B14201D110220AE0244EA2
:100C50002836B14206D0224A3C32914201D11A468E
:100C600000E02A461E49091F0A602BE0B94213D052
:100C7000614517D0494522D051451DD059451DD059
:100C8000714501D142461AE0B14202D14FF0807263
:100C900015E0134EB14201D1012210E0104E14367E
:100CA000B14201D110220AE00D4E2836B14206D0E1
:100CB0000B4A3C32914201D11A4600E02A460749CC
:100CC00080394A60012180F82110002180F820102D
:100CD000416B01B188472046BDE8F09F800002408B
:100CE000080402402DE9F05FC16B0B6801680A68D7
:100CF000046C4FF0040808FA04F8854D854E864FC1
:100D0000DFF818C2DFF81892DFF818A2DFF818B27F
:100D1000DFF818E218EA030F65D05FEA427862D57F
:100D20000A68920603D40A6822F004020A60DFF817
:100D3000F4814FF48062016808F114081301140271
:100D4000414524D9A9420DD0B1420FD0B9421AD0A1
:100D5000614515D0494515D0514501D1120312E026
:100D6000594501D104220EE0714501D140220AE02B
:100D70006E4D1435A94206D06C4A2832914201D1F9
:100D80001A4600E022466849091F0A6029E0A94284
:100D900013D0B14215D0B94220D061451BD049458E
:100DA0001BD0514502D14FF4800217E0414502D1DA
:100DB0004FF0806212E0594501D104220EE07145E6
:100DC00001D140220AE0594D1435A94206D0574AB4
:100DD0002832914201D11A4600E022464C49083996
:100DE0004A60C16A71E04FF0020808FA04F818EA94
:100DF000030F70D05FEA82786DD50A68920606D438
:100E00000A6822F00A020A60012180F82110DFF846
:100E100014814FF40072016808F1140813011402E0
:100E2000414524D9A9420DD0B1420FD0B9421AD0C0
:100E3000614515D0494515D0514501D1120312E045
:100E4000594501D102220EE0714501D120220AE06C
:100E5000364D1435A94206D0344A2832914201D188
:100E60001A4600E022463049091F0A6029E0A942DB
:100E700013D0B14215D0B94220D061451BD04945AD
:100E80001BD0514502D14FF4001217E0414502D169
:100E90004FF0007212E0594501D102220EE0714577
:100EA00001D120220AE0214D1435A94206D01F4A63
:100EB0002832914201D11A4600E0224614490839ED
:100EC0004A60002180F82010816A00291DD0BDE809
:100ED000F05F0847FFE7082505FA04F51D4214D026
:100EE000120712D50A6822F00E020A6090F840201C
:100EF000C36B012101FA02F25A60816380F821106C
:100F0000002180F82010016BDFE7BDE8F09F0000B2
:100F1000080002401C000240300002404400024031
:100F2000580002406C000240080402401C040240C9
:100F300030B560B11A4B01681422994209D2194B9D
:100F40000B44B3FBF2F292000264174A0AE001205C
:100F500030BD134B5B420B44B3FBF2F292000264D0
:100F60000F4A083AC2630222001D42770A6843F61C
:100F7000F0739A43D0E900342343D0E902452C436F
:100F8000234304692343446923438469234313436C
:100F90000B6000214163012242770177084630BD92
:100FA00008040240F8FFFDBF0000024070B504468F
:100FB00090F82000002501280CD0012084F82000A2
:100FC00094F821600020012E06D084F8200002252C
:100FD000284670BD022070BD022684F82160A063FF
:100FE0002068066826F0010606602046FFF742FAF0
:100FF000E06A00282068016802D041F00E0106E096
:1010000021F0040101602068016841F00A010160DB
:101010002068016841F001010160D9E72DE9F0473E
:10102000054626480F460126017E01290FD00121E1
:10103000814601762868DFF888804CF25034022817
:1010400008D0A2462046FFF71DFBA8B131E00220E0
:10105000BDE8F0872046FFF715FB08BB0120FFF72E
:10106000B1FA2046FFF70EFBD8F81010064621F023
:101070000401C8F810101CE04FF0FF303860AC6875
:1010800011E02046FFF7B0FA5046FFF7FBFAD8F818
:101090001010060021F00201C8F8101001D03C60C9
:1010A00007E004F50064D5E9020100EBC120A0428D
:1010B000E7D8002189F818103046C9E7D01700207A
:1010C000002002400348016941F0800101610020D5
:1010D00070470000002002402DE9F05F05461D48E2
:1010E00088460024017E16461F46012909D00121A9
:1010F000814601764CF2503A5046FFF7C3FA18B1D8
:1011000023E00220BDE8F09F012D02D0022D00D087
:101110000425D346DFF840A015E0220130463946C9
:10112000FFF722F881B208EB4400FFF76FFA584648
:10113000FFF7A8FADAF8102022F00102CAF810200E
:1011400018B9641CE4B2AC42E7D3002289F8182035
:10115000D8E70000D01700200020024006490020F8
:101160000A69120607D5054A4A60054A4A600969B4
:10117000090600D501207047002002402301674581
:10118000AB89EFCD2DE9F84FDFF8C891002409F1C4
:10119000040A0AF1040B23464FF00F080BF1040E6A
:1011A000D0E00127A7403A40BA4272D1DFF8A8C187
:1011B0004D68A5EB0C0665452BD00DDC032D34D016
:1011C00005DC35B3012D19D0022D2FD11BE0112DD7
:1011D00016D0122D2AD119E0B6F5881F19D006DCD9
:1011E000B6F5803F15D0B6F5801F1FD111E0B6F5DA
:1011F000001F0ED0B6F5041F18D10AE0CB6815E029
:10120000CB681B1D12E0CB6808330FE0CB680C33B2
:101210000CE08B682BB1012B4FF0080303D0476122
:1012200004E0042302E0076100E00023FF2A01D864
:10123000064601E000F104064FEA840501D9A5F154
:101240002005376808FA05FC27EA0C0703FA05F5BC
:1012500047EA050737604D68ED0072D53F4DAE692E
:1012600046F00106AE61AD6924F0030605F0010504
:1012700000953B4D7719BE68A5072D0F08FA05FCB0
:1012800026EA0C06DFF8DCC0604503D14FF0000C05
:1012900025E056E0DFF8D0C0604502D14FF0010CE8
:1012A0001DE0DFF8C8C0604502D14FF0020C16E027
:1012B000DFF8BCC0604502D14FF0030C0FE0DFF84F
:1012C000B4C0604502D14FF0040C08E0DFF8A8C0BC
:1012D000604502D14FF0050C01E04FF0060C0CFA0E
:1012E00005FC4CEA060CC7F808C04D68D9F8006048
:1012F000ED03002D4D4601DA164300E096432E60C3
:101300004D68DAF80060AD03002D554601DA16434A
:1013100000E096432E604D68DBF80060ED02002D82
:101320005D4601DA164300E096432E604D68DEF814
:101330000060AD02002D754601DA164300E09643C9
:101340002E60641C0A6832FA04F57FF42AAFBDE807
:10135000F88F00000004014000001110001002404E
:101360000000014000080140000C01400010014055
:101370000014014000180140001C01400AB1016145
:1013800070470904FBE700000148806870470000CF
:101390009000002002488168027811448160704703
:1013A00090000020074810B5016841F0100101606D
:1013B000032000F079F8002000F006F800F024F88F
:1013C000002010BD0020024070B50D4D04464FF4C2
:1013D0007A712878B1FBF0F00A490968B1FBF0F0A6
:1013E00001F0C0F848B9102C07D200222146501E47
:1013F00000F03AF800206C6070BD012070BD000064
:10140000900000209C0000200E4808B5816941F042
:1014100001018161816901F001010091C16941F01F
:101420008051C161C06900F080500090052000F03B
:101430003BF80549486820F0E06040F000704860E3
:1014400008BD0000001002400000014000280ADB37
:1014500000F01F020121914040094FF0E02202EB11
:101460008000C0F800117047F0B40E4B1B68C3F346
:101470000223C3F10704042C00D904241D1D072DE9
:1014800001D2002300E0DB1E012606FA04F56D1EE2
:101490000D409D409E40761E164045EA0601F0BC78
:1014A00003F02ABF0CED00E0064A00F007011068C7
:1014B0004FF6FF03184040EA01200349084310603B
:1014C000704700000CED00E00000FA05BFF34F8FFD
:1014D00005480168054A01F4E06111430160BFF36A
:1014E0004F8F00BFFDE700000CED00E00400FA059F
:1014F00010B50C0607D501F0070101EB810100EBE7
:10150000C100283005E001EB810100EBC10000F5CE
:10151000B47099B232B1012202730181190C418178
:10152000002010BD00220273C180F9E7704701EB73
:10153000810200EBC202D0F8E802D26B02F079BE61
:1015400001EB810200EBC202D0F8E802D2F87C2164
:1015500002F0D2BE70B504460B0601F0070000EBA6
:10156000800104EBC1014FF001024FF0000502D5EC
:1015700028314A7002E001F5B4714D70087094F89A
:10158000A802012808D084F8A822206803F0F1FA04
:1015900084F8A852002070BD022070BD70B50446CA
:1015A00001F00F006268904201D9012070BD0B0666
:1015B00001F0070000EB800104EBC1014FF00102D4
:1015C0004FF0000502D528314A7002E001F5B471F0
:1015D0004D708D70087094F8A802012808D084F826
:1015E000A822206803F063FB84F8A852002070BD95
:1015F000022070BD2DE9F05F046857040B788D69F7
:10160000B4F850704FF000064BF68F7948F2800A1C
:1016100048F68F7B48F2C00E4FF480682AD54FF011
:10162000020C0CEBC30C674408EB4707E45BC4F304
:101630000904A54203D32D1B8D6101D00BE08E61FF
:10164000056835F8236006EA090686F4005646EA7E
:101650000A0625F82360520609D50A78036833F88C
:10166000225005EA0B0545EA0E0523F8225084B303
:101670000A8929E04FF0060C0CEBC30C674408EB19
:101680004707E45BC4F30904A54203D32D1B8D6116
:1016900001D00BE08E61056835F8236006EA090683
:1016A00086F4005646EA0A0625F82360520609D455
:1016B0000B78026832F8235005EA0B0545EA0E055F
:1016C00022F823502CB14A8949690068234603F067
:1016D000BCFD2046BDE8F09F2DE9F05F054600689F
:1016E0000C465FEA426C8B6916460978B0F850C028
:1016F0004FF0000248F68F774CF280094FF6FF7BDF
:101700004FF4004E4FF4806A6CD54FF0020808EB9E
:10171000C108E0440AEB480C30F80C00C0F30900A3
:10172000834211D91B1AA3610FD0730407D52B680C
:1017300033F821603E4046EA090623F8216094F818
:101740002410012907D0C5E0A2612846FFF7EFFE6B
:1017500070046CD4BEE0616901446161E1690144D7
:10176000E1612369216A994203D31846091A21626B
:1017700004E084F8242009B108462262617811B19E
:10178000012923D02BE02968B1F850201144227898
:1017900001EB021101F2044148B13E280FD8420882
:1017A000C30700D0521C0BEA82220A8017E00A8885
:1017B00022F4F8420A800A8842F40042F5E742091E
:1017C000C30600D1521E4EEA8222EEE72968B1F824
:1017D00050201144227801EB0211A1F8040483B2D5
:1017E000228973E04FF0060808EBC108E0440AEBD9
:1017F000480C30F80C00C0F30900834211D31B1AC7
:10180000A3610FD0730407D42B6833F821603E40E6
:1018100046EA090623F8216094F82410012910D023
:1018200058E0A2612846FFF782FE700452D4217866
:10183000286830F821203A4042EA090220F82120A5
:1018400048E0616901446161E1690144E161236942
:10185000216A994203D31846091A216204E009B1AA
:101860000846226284F824206278296812B1012A8D
:1018700022D029E0B1F850201144227801EB021166
:1018800001F20C4148B13E280FD84208C30700D0EE
:10189000521C0BEA82220A8016E00A8822F4F842DF
:1018A0000A800A8842F40042F5E74209C30600D1E3
:1018B000521E4EEA8222EEE7B1F8502011442278FF
:1018C00001EB0211A1F80C04628983B261692868F6
:1018D00003F0D7FC2178286830F8212048F6BF7340
:1018E0001A4082F0300248F280031A4320F8212087
:1018F0000020BDE8F09F2DE9F04104460F0601F0FD
:10190000070000EB800104EBC1014FF001064FF02E
:10191000000502D528314E7002E001F5B4714D701A
:1019200008700A61CB704A7802B1C881022B00D1DD
:101930000D7194F8A802012809D084F8A8622068E3
:1019400002F0DAFF284684F8A852BDE8F0810220B0
:10195000FBE770B50D4601F0070404EB840100EBD2
:10196000C10101F5B471C1E905230022CA614A70C1
:101970000C706A07006803F0EDF9002070BD70B5C7
:1019800004460D4601F007006168884201D9012034
:1019900070BD29064FF000064FF0010206D500EB9E
:1019A000800104EBC10128314A7006E005EB850196
:1019B00004EBC10101F5B4714E708A70087094F89F
:1019C000A802012807D084F8A822206803F0A9F90A
:1019D000680702D006E0022070BD04F52C71206873
:1019E00003F063F984F8A862002070BD70B50D465D
:1019F00001F0070404EB840100EBC1012831C1E9C7
:101A00000523012281F824200B620023CB614A7058
:101A10000C706A07006803F09DF9002070BD1FB5C7
:101A20000446006803F00EFC000402D5204601F0D5
:101A3000B6FA206803F006FC40050CD5206830F8A3
:101A4000441F21F480610180204600F017F9002135
:101A5000204600F02EF9206803F0F4FB400405D581
:101A6000206830F8441F21F480410180206803F091
:101A7000E9FB800405D5206830F8441F21F40051AB
:101A80000180206803F0DEFBC00414D5206830F824
:101A9000401F21F004010180206830F8401F21F030
:101AA00008010180204600F0FCF8206830F8441F4F
:101AB00021F480510180206803F0C4FB00053ED56D
:101AC000216800206A4631F8203022F81030401C8E
:101AD000C0B20828F7D331F8400F40F00100088069
:101AE000206830F8401F21F0010101802068B0F823
:101AF00044104905FBD530F8441F21F48061018072
:101B00000020236832F8101023F82010401CC0B2C7
:101B10000828F6D3206830F8401F41F00801018002
:101B2000206830F8441F21F400610180206830F8FB
:101B3000401F41F004010180204600F0EFF82068CA
:101B400003F080FB800508D5206830F8441F21F49D
:101B500000710180204600F0A8F8206803F072FBB5
:101B6000C00505D5206830F8441F21F4807101803C
:101B70001FBD2DE9F04186B0040004D094F8A902FD
:101B8000002520B108E0012006B0BDE8F08184F80E
:101B9000A852204600F054F8032084F8A9022068D7
:101BA00003F07CF804F11001142288466846FEF721
:101BB000EBFA94E80F0002F0DAFF0227A0BB002145
:101BC000206803F056FB002101260DE001EB8100A7
:101BD00004EBC000283046700170C181C5700561FA
:101BE0004561491CC9B2856160688842EED8002110
:101BF0000DE001EB810004EBC00000F5B47045700E
:101C00000170C57005614561491CC9B28561606894
:101C10008842EED8142241466846FEF7B5FA94E8A9
:101C20000F0003F032F810B184F8A972ABE784F822
:101C3000245084F8A962206803F025F80020A3E767
:101C400008B500680B49884212D10B48C16941F4BC
:101C50000001C161C069002200F40000009011463B
:101C60001420FFF701FCBDE808401420FFF7EEBB8D
:101C700008BD0000005C00400010024070B5044642
:101C800080680125022801D0FEF798FC2946D4F887
:101C9000E80202F008FCD4F8E802BDE8704002F067
:101CA000C4BBD0F8E80202F0E8BBD0F8E80202F0CA
:101CB000EEBB10B5044690F8A80201280BD0012015
:101CC00084F8A80284F82410206803F0D4FA0020D5
:101CD00084F8A80210BD022010BDD0F8E82200F55B
:101CE0002C71104602F0EBBB10B5044690F8A80228
:101CF000012810D0012084F8A802206803F094FA8B
:101D000001212046FFF712FC206802F0BAFF0020F4
:101D100084F8A80210BD022010BD000010B50446D2
:101D2000D0F8E80202F00AFCA069002804D00348B9
:101D3000016841F00601016010BD000010ED00E0F7
:101D40002DE9F84304460078354FC00753D0F869B1
:101D50000025C00008D4F86940F08050F861F869A7
:101D6000012500F0805000902E480168C90511D46B
:101D70000168804641F480710160FFF705FB06466B
:101D800004E0FFF701FB801B642822D8D8F800008C
:101D9000C005F6D5386A10F4407020D0A18801F44F
:101DA000407181421BD0386A1F49012220F44070E3
:101DB0000A6000220A603862C00710D0FFF7E4FA18
:101DC000064641F2883807E0FFF7DEFA811B4145FD
:101DD00002D90320BDE8F883386A8007F4D5386A51
:101DE000616820F4407008433862012D03D1F8691E
:101DF00020F08050F8612078800705D57868A168C8
:101E000020F44040084378602078C00605D5786803
:101E1000616920F48000084378600020DAE7000060
:101E20000010024000700040400442422DE9F0479B
:101E30000D46040067D0DFF81881D8F8000000F0E4
:101E40000700A8420CD2D8F8001021F0070129435E
:101E5000C8F80010D8F8000000F00700A84252D1DE
:101E600020683C4E810712D5400703D5706840F4C6
:101E7000E06070602078000703D5706840F460501F
:101E800070607068A16820F0F000084370602078EE
:101E9000C00727D06068012810D03168022810D010
:101EA000890700292FDA716821F00301014371606D
:101EB000FFF76AFA074641F288390CE03168890376
:101EC000EFE78901EDE7FFF75FFAC11B494502D94A
:101ED0000320BDE8F0877068616800F00C00B0EB8B
:101EE000810FF0D1D8F80010404601F00701A94257
:101EF0000BD9016821F0070129430160006800F057
:101F00000700A84201D00120E3E72078400705D56B
:101F10007068E16820F4E060084370602078000792
:101F200006D57068216920F4605040EAC1007060F5
:101F300000F038F87168084AC1F30311515CC840D9
:101F40000649086006480068FFF73EFA0020C0E72F
:101F500000200240001002406C5500089C00002048
:101F6000940000200448054900684968044AC1F308
:101F70000221515CC84070479C00002000100240C4
:101F80007C5500080448054900684968044AC1F3C3
:101F9000C221515CC84070479C00002000100240E4
:101FA0007C55000814A085B090E80E00C068CDE90B
:101FB0000012CDE9023014A0144B00680490596857
:101FC000134801F00C02042A10D0082A0ED1C1F3E4
:101FD0008342C9031DF802000AD5596804AAC1F357
:101FE0004041515C0A4A5043B0FBF1F005B07047E4
:101FF00008494843FAE700000203040506070809F8
:102000000A0B0C0D0E0F1010010200000010024010
:1020100000127A0000093D002DE9F84F04006FD04E
:102020002078BF4DC00747D06868C0F38100012801
:1020300007D06868C0F38100022809D16868C0032E
:1020400006D52868800337D560680028E7D033E0DC
:102050006068B0F5803F0BD010B1B0F5A02F11D063
:10206000286820F480302860286820F4802002E06E
:10207000286840F480302860606888B1FFF784F9F0
:10208000064609E0286840F480202860F0E7FFF762
:102090007BF9801B642874D828688003F7D50BE08F
:1020A000FFF772F9064604E0FFF76EF9801B64281B
:1020B000F1D828688003F7D42078DFF86882800799
:1020C0004FF0010A4FF0000939D5686810F00C0F85
:1020D00007D06868C0F38100022809D16868C0038E
:1020E00006D42868800714D52069012808D110E09B
:1020F0002069B0B1C8F800A0FFF746F9064605E030
:1021000009E1FFF741F9801B0228C4D8286880073D
:10211000F7D52868616920F0F80040EAC10028601E
:102120000DE0C8F80090FFF72FF9064604E0FFF72E
:102130002BF9801B0228AED828688007F7D42078B6
:1021400000072DD57848A169E1B1C0F800A0FFF7DC
:102150001BF9064604E0FFF717F9801B022810D888
:10216000686A8007F7D571484FF4FA510068B0FBF0
:10217000F1F0009000BF0098411E00910028F9D1B5
:102180000EE07DE0C0F80090FFF7FEF8064604E0A0
:10219000FFF7FAF8801B022872D8686A8007F7D424
:1021A000207840075CD5E8690027C00008D4E869BA
:1021B00040F08050E861E869012700F0805000900D
:1021C0005B480168C90511D40168834641F48071F8
:1021D0000160FFF7D9F8064604E0FFF7D5F8801B49
:1021E00064284DD8DBF80000C005F6D5E06801286A
:1021F0000AD008B1052813D0286A20F0010028620F
:10220000286A20F0040002E0286A40F001002862F9
:10221000E06841F2883B88B1FFF7B6F8064609E06E
:10222000286A40F004002862EEE7FFF7ADF8811B52
:1022300059455CD8286A8007F7D50BE0FFF7A4F86A
:10224000064604E0FFF7A0F8811B59454FD8286ADD
:102250008007F7D4012F03D1E86920F08050E861AE
:10226000E069A8B36968C1F38101022946D0022858
:10227000484606D0C8F86000FFF786F8044639E003
:1022800035E04746C8F86000FFF77EF8064604E0F0
:10229000FFF77AF8801B022829D828688001F7D434
:1022A000206AB0F5803F05D16868A16820F400304D
:1022B00008436860D4E908010843696821F474118F
:1022C00008436860C7F860A0FFF75EF8044605E0C1
:1022D00023E0FFF759F8001B022808D8286880017E
:1022E000F7D51AE0FFF750F8001B022802D90320A7
:1022F000BDE8F88F28688001F4D40EE00128F7D0FB
:102300006868226A00F48031914204D1616A00F465
:102310007010884201D00120EAE70020E8E70000C1
:102320000010024000004242800442429C00002013
:1023300000700040704770B5040009D0606A002545
:1023400040B125616561A56294F8510040B10CE08F
:10235000012070BD6068B0F5827FF4D0E561F2E7DE
:1023600084F85050204600F03FF8022084F85100D5
:102370002068016821F040010160A088218900F4F3
:10238000827001F404410843A18901F4006108430B
:10239000217C01F002010843217D01F00101084385
:1023A000218B01F400710843217F01F038010843BB
:1023B00094F8201001F080010843218D01F40051B0
:1023C000084321680860A069042101EA10402168DF
:1023D00048602068C16921F40061C1616565012020
:1023E00084F85100002070BDF0B585B0002405468A
:1023F000009401940294039400681E49884236D1E7
:102400001D48816941F480518161816901F48051E5
:102410000491816941F0040181618069022600F024
:1024200004000490A020CDE900060320134F039080
:1024300069463846FEF7A6FE40208DE85100694601
:102440003846FEF79FFE0F4E0D4830601020C6E95B
:1024500001048020C6E903047461B4613046F4616C
:10246000FEF766FD08B1FEF7A9F8AE64756205B027
:10247000F0BD0000003001400010024000080140A3
:1024800030000240500800202DE9F041044690F849
:1024900050000025012809D0012784F8507094F8D5
:1024A00051000026012804D002254EE00220BDE89C
:1024B000F08189B182B1032084F8510066652163FF
:1024C000A286E286A66366642664A687E687A0687D
:1024D000B0F5004F02D00BE0012536E0206801681E
:1024E00021F0400101602068016841F480410160F1
:1024F000A16C1848C862A16C17488862A16C174883
:102500000863A06C4663E38E2268216B0C32A06CDA
:10251000FEF74CFD38B1606D40F01000606501259C
:1025200084F8517011E020680168490603D40168FD
:1025300041F0400101602068416841F020014160A4
:102540002068416841F00201416084F850602846EB
:10255000ADE70000EF320008F9320008CD32000884
:102560007047704710B5401EB0F1807F01D3012045
:1025700010BD4FF0E02460610F21601702F0BCFE37
:102580000020A06107202061002010BD70B590F8E8
:102590003C20012A2BD0012580F83C50022280F8F3
:1025A0003D2002685368946823F070060B6833433B
:1025B0005360104B02689A420ED00F4B9A420BD0D8
:1025C000B2F1804F08D00D4B9A4205D00C4B9A4285
:1025D00002D00C4B9A4204D1496824F0800319437D
:1025E00091603C30457000210170084670BD0220AA
:1025F00070BD0000002C0140003401400004004088
:1026000000080040000C004010B5040003D094F80E
:102610003D0010B107E0012010BD002084F83C000F
:10262000204600F015F8022084F83D00211D2068A6
:1026300001F040FA01203D3460726070A070E070DB
:1026400020716071A071E07120722070002010BDB7
:1026500008B500680B49884212D10B48C16941F0A6
:102660001001C161C069012200F01000009000213A
:102670003620FEF7F9FEBDE808403620FEF7E6BE3C
:1026800008BD0000001000400010024090F83D100E
:10269000012901D001207047022180F83D10016816
:1026A000CA6842F00102CA6000680E4988420ED032
:1026B0000D4988420BD0B0F1804F08D00B498842B9
:1026C00005D00B49884202D00A49884204D181686A
:1026D00001F00701062903D0016841F00101016002
:1026E00000207047002C01400034014000040040ED
:1026F00000080040000C00407047000070B5026800
:1027000004461068D168526910F00F0F53D002F0E0
:10271000010301F490751D435FD0C50705D0CD05B9
:1027200003D5656C45F001056564450705D5D507FA
:1027300003D0656C45F002056564850705D5D207B1
:1027400003D0626C42F004026264020707D501F014
:1027500020021A4303D0626C42F008026264626C89
:10276000002A34D0800604D5880602D5204601F020
:102770000AFA20684069616CC0F3801001F008011A
:102780000143204624D001F0E3F92068416949065D
:102790001AD5416921F040014161E06BA0B11849AF
:1027A0004163E06BFEF706FA002810D0E06B416B46
:1027B000BDE87040084782060FD58A060DD5204631
:1027C000BDE8704001F0DFB92046FFF795FF70BD0E
:1027D000FFF792FF0020606470BD020606D50A066E
:1027E00004D52046BDE8704001F094BA4006F3D508
:1027F0004806F1D52046BDE8704001F0B7B90000A9
:10280000413B0008F8B5026804461068D168536976
:1028100010F00F0F4FF000053AD003F0010201F461
:10282000907616434FD0C60705D0CE0503D5666C0B
:1028300046F001066664460705D5DE0703D0666CE0
:1028400046F002066664860705D5DB0703D0636C95
:1028500043F004036364030707D501F02003134327
:1028600003D0626C42F008026264626C002A0ED0EF
:10287000800604D5880602D5204601F0CAF9606CAE
:10288000000703D520680168406800906564F8BDC2
:10289000830606D58B0604D52046BDE8F84001F036
:1028A000B8B9C3060FD5CB060DD510685068009097
:1028B000608E30B9A28ED4E90A10FDF765FCA08EB7
:1028C0006086A586F8BD020606D50A0604D5204610
:1028D000BDE8F84001F01EBA4006F3D54806F1D530
:1028E0002046BDE8F84001F041B970B5040004D0BD
:1028F00094F84100002510B106E0012070BD84F875
:102900004050204600F022F8242084F8410020683E
:10291000C16821F40051C160204601F0B5F920687A
:10292000016921F4904101612068416921F02A0187
:1029300041612068C16841F40051C1606564202094
:1029400084F8410084F84200002070BDF0B585B0E5
:102950000024009401940294039400682C4F2D49A4
:10296000022203232C4D0126B84225D1886940F468
:1029700080408861886900F480400490886940F054
:10298000040088618869039300F0040004904815EE
:10299000CDE9000269462846FEF7F4FB28158DE8CC
:1029A000510069462846FEF7EDFB02220121252051
:1029B000FEF75AFD252027E0184FB84226D1C869F6
:1029C00040F40030C861C86900F4003004908869A0
:1029D00040F0040088618869694600F004000490B2
:1029E0000420CDE9000203932846FEF7CBFB082024
:1029F0008DE8510069462846FEF7C4FB02220121FA
:102A00002620FEF731FD2620FEF720FD05B0F0BDA3
:102A1000003801400010024000080140004400401E
:102A200010B590F84240202C28D129B323B390F858
:102A30004040012C22D0C0E90A1203860021818681
:102A40004164222280F8422080F840100168CA6860
:102A500042F48072CA6001684A6942F001024A6128
:102A60000168CA6842F02002CA600068C16841F08B
:102A70001001C160002010BD012010BD022010BD5A
:102A8000704790F84130202B18D1A9B1A2B190F82D
:102A90004030012B12D001628284C2840021416443
:102AA000212280F8412080F840100068C16841F080
:102AB0008001C160002070470120704702207047EC
:102AC0007047FEF703FDFCE704490020012208607F
:102AD00048608870CA700871704700001C000020B0
:102AE000F0B500230A24302537261F4610E0B4EB4A
:102AF000107F02D905EB107C01E006EB107C01F899
:102B000013C001EB430C00015B1C8CF80170DBB2BD
:102B10009342ECD3F0BD000006480178012907D1AB
:102B200005494078CA78904202D0C87000F0C6BD0E
:102B30007047000010000020240000202DE9F0471D
:102B40004A4807684A480024DFF82881817843789A
:102B5000491C0278484DC9B201264FF0020937B12D
:102B60001BB181700A2908D94470847024E01BB914
:102B700081700A2920D946708470DAB9067000F095
:102B800089FB98F80000012814D140213A48FDF74C
:102B900014FB2E7040223849384801F0A2FA002870
:102BA000F8D185F8009002223349344801F099FAAF
:102BB0000028F8D132481EE0012A1BD1047000F031
:102BC00069FB98F80000012814D140212A48FDF73C
:102BD000F4FA2E7040222849284801F082FA002891
:102BE000F8D185F8009002222349244801F079FAAF
:102BF0000028F8D12348FDF7CDFD98F80000224FBA
:102C0000012809D098F80100002803D0387800F096
:102C1000E5FC3C70BDE8F0873878C10713D020F0A0
:102C20000100387019482E701A49007868701848E9
:102C30000278E81CFDF7A8FA40220F490F4801F07E
:102C400050FA0028F8D138788107E3D520F0020047
:102C50003870114885F800900078687002220649A3
:102C6000064801F03EFA0028F8D1D3E70C012242D1
:102C7000240000200D000020420200200810002047
:102C800000550008945400080000002001000020B6
:102C900003000020D6010020020000203EB50021E4
:102CA0001048009101910E4A029102608160017307
:102CB000017501244FF460220461C2614160FDF797
:102CC000BBFE48B905200094CDE90140694605489E
:102CD000FDF734FE002801D0FDF770FC3EBD00007A
:102CE00000240140F00600202DE9F04F85B00024BB
:102CF0005A480094019402940394816941F00401BC
:102D00008161816901F004010491816941F0080148
:102D10008161816901F008010491816941F010012C
:102D20008161816901F010010491816941F0200104
:102D300081618069DFF828A100F020000490002262
:102D40004EF207015046FEF719FB01224FF4707155
:102D50005046FEF713FBDFF80CB148F210080022D2
:102D600041465846FEF70AFB01224FF210213E4829
:102D7000FEF704FB4FF48079012249465846FEF7DE
:102D8000FDFA002220213848FEF7F8FA4FF460409F
:102D900001250226CDE90005CDE9024669465046E7
:102DA000FEF7F0F940F2C7300327CDE90005CDE981
:102DB000024769465046FEF7E5F941F638408DE88E
:102DC000310069465046FEF7DDF9CDF800800396E4
:102DD000CDE9015469465846FEF7D4F940F64F5004
:102DE0008DE8310069462048FEF7CCF94FF4704079
:102DF000CDE90005CDE9024769461B48FEF7C2F957
:102E0000CDF800900397CDE9015469465846FEF786
:102E1000B9F904208DE8310069461448FEF7B2F98B
:102E20004FF40470009001AA112091C269460E4827
:102E3000FEF7A8F92020CDE90005CDE90246694654
:102E40000948FEF79FF980208DE851006946064841
:102E5000FEF798F905B0BDE8F08F000000100240C1
:102E60000010014000080140000C01400014014026
:102E70000F4810B50D4901604FF482714160002187
:102E800002228160C0E90312012242615202826182
:102E90001822C0E90721416281620A21C162FFF75D
:102EA0004AFA002801D0FDF789FB10BD003001402F
:102EB000200700201CB500240D4800940B49019404
:102EC00001600B21C0E90114D1218461C160FFF7C9
:102ED0009BFB38B90094694605480194FFF756FBFF
:102EE000002801D0FDF76AFB1CBD00000010004067
:102EF0007807002010B500220B490C4801F072F948
:102F000008B1FDF75BFB0A49084801F03CFB08B13A
:102F1000FDF754FB054801F08BFB002803D0BDE80A
:102F20001040FDF74BBB10BD4000002008100020F2
:102F3000A4000020FEF7CAFAFCE7000070B5124CAE
:102F400012483C222178142690F89C02104D012949
:102F500005D0022911D0BDE87040FEF7B7BA2A703B
:102F6000032809D00B48002101604160084600F0A9
:102F7000A5FB022020702E7070BD2E700328FBD19F
:102F8000012020702A7070BD0D0000200810002064
:102F90000300002010000020FEF798FAFCE72DE95E
:102FA000F05F04464FF0060A4FF0020B4FF48069C1
:102FB00065E1B0F8441011F00F0639D030F82680E2
:102FC0005FEA08417DD530F8261040F68F72114037
:102FD00041F0800120F8261006EB860004EBC005C6
:102FE00005F5B475287B00286CD0E87802286AD0F3
:102FF0002978206830F8212048F68F731A4048F26B
:10300000C0031A4320F821202978206830F82120B5
:10301000B0F8503052047ED50BEBC10103EB010236
:1030200009EB4201415A8F05BF0D75D02A89CFE0C7
:10303000C9062ED4018848F60F72114041F40041B0
:103040000180206804F12805B0F850202B780BEBA4
:10305000C3010A4409EB4201405AC0F3090060640D
:10306000E16B0844E06300212046FEF760FA94F823
:10307000240000289CD0A869002899D194F8240045
:10308000216840F08000A1F84C00002084F8240062
:10309000F5E0018804F5B4750A0521D5B0F8502093
:1030A0002B780AEBC3010A4409EB4201405A04F5AC
:1030B0002C71C0F30903EB61EA88206802F0C5F8BF
:1030C00002E09DE064E072E02068018840F68F72C3
:1030D000114041F0800101802046FEF7FEFDCEE068
:1030E0000904D5D5018840F68F72114041F0800166
:1030F00001802068B0F850202B780AEBC3010A4405
:1031000009EB4201405A83059B0DEB6110D06969C0
:1031100071B1EA8801E051E04FE0206802F095F8D3
:10312000E96968690844686100212046FEF708FAE9
:103130002068B0F850100844296900F20C4051B1E1
:103140003E2910D84A08C90700D0521C4FF6FF711B
:1031500001EA82210FE0018821F4F8410180018811
:1031600041F4004107E04A09C90600D1521E4FF45C
:10317000004141EA82210180206801884BF68F726C
:10318000114081F4405148F280021143018076E001
:103190002068B0F850202B780AEBC3010A4409EBF1
:1031A0004201415A8F05BF0D16D0EA8810E0424611
:1031B00029462046FEF71EFA07460DE00AEBC1013C
:1031C0005A1809EB4201415A8F05BF0D04D06A8994
:1031D0003B46696902F039F8E8693844E861686992
:1031E00038446861A86910B12869B84204D92978BF
:1031F0002046FEF7A5F903E02946206801F0AAFD64
:103200005FEA08603BD506EB860004EBC00120684E
:10321000283130F8262048F60F731A4042F4004255
:1032200020F82620C878022802D15FEAC85022D4AC
:103230002068B0F850300D780BEBC502134409EB51
:103240004302805A8A69C0F3090082420CD9121ADB
:103250008A610BD04A6902444A61CA691044C86154
:10326000206801F077FD0AE000208861E9B220467D
:10327000FEF75DF903E042462046FEF72DFA20688E
:10328000B0F8441009043FF594AE0020BDE8F09F6B
:1032900070470000084910B5002008700749087001
:1032A000074908706C210748FCF787FFBDE810400C
:1032B00012210548FCF781BF010000200200002018
:1032C0000C000020D6010020DE06002010B5406A68
:1032D00001684A6822F003024A60416D41F0100122
:1032E0004165012180F85110FFF724F810BD10B599
:1032F000406AFFF736F910BD38B50546446AFEF757
:1033000043F8024628680068800623D42068416894
:1033100021F0200141602068416821F002014160F4
:103320006421204600F01AF818B1606D40F02000CA
:103330006065A068002118B92068C26880680090A4
:10334000E186012084F85100606D18B12046FEF737
:10335000F1FF38BD2046FFF703F938BD38B50B46FD
:10336000009204460022802100F008F8002804D0D2
:10337000606D40F020006065032038BD2DE9F84302
:103380001E46914688460446089DFDF7FDFF401BFA
:10339000351AFDF7F9FF074625480068C0F3CB3022
:1033A000684337E0701C36D0FDF7EEFFC01BA84223
:1033B00003D215B1009858B32BE02068416821F082
:1033C000E00141606068B0F5827F0BD1A068B0F584
:1033D000004F02D0B0F5806F04D12068016821F061
:1033E00040010160A06AB0F5005F09D12068016862
:1033F00021F4005101602068016841F4005101602E
:10340000012050346070002020700320BDE8F88354
:103410000025401E00902068816838EA010004D031
:1034200000204845BED10020F0E70120F9E7000068
:103430009C000020704700000A4910B588420AD35A
:10344000094B00214A42C1F1030430F8122033F83D
:103450001440944201D0012010BD491C0429F1D32D
:10346000002010BD04F803081C000020074810B518
:1034700000210160064981600121C1600549FDF715
:10348000CDFD002800D0012010BD0000F80F002065
:1034900000F803083C00002010B5FDF71DF900F00E
:1034A00055F80A4CE088A0F54C41CC3906D10321EF
:1034B000A01CFCF7A6FF2188884205D0FFF704FB7B
:1034C000BDE8104000F004B810BD00001C00002052
:1034D0002DE9F04100251A4EFDF7FEF80446FFF7EE
:1034E000ABFF002829D0174F4CF6CC400321F880C1
:1034F000B81CFCF786FF3880FDF730FE0028FBD1B2
:103500001148001B0C2803D2FFF7B0FF344602E03D
:10351000B44200D9A41C204600F04AF8FDF7D2FDC1
:103520000028FBD1FDF7D8F8FFF786FF002804D06C
:103530006D1CEDB2032DCFD90120BDE8F081000054
:1035400000F803081C0000200000040810B5064B1A
:1035500000214A42C1F1030430F81220491C23F82B
:1035600014200429F5D310BD1C00002010B50D4C0B
:103570000D4B0E4920789A79904203D09871888833
:10358000588110BD0028FCD089885889FDF7F8F8CB
:103590003228F6D9002020709871BDE81040FFF75E
:1035A00097BF00000F00002024000020C40100206D
:1035B00070B5094E0546002405EB440136F8142089
:1035C00000230120FDF788FD08B1012070BD641CB7
:1035D000042CF1D3002070BD1C0000202DE9F04721
:1035E0002B4C2C4FDFF8B0902178014306D139885D
:1035F000B9F80000FDF7C4F8642806D3274890F80E
:1036000041000126202802D02670BDE8F087DFF8AF
:1036100090802448002298F8001019B10188491CB4
:10362000018000E00280204D2270A52028701F48F4
:103630006E7014220078E8701D481F4900782871C8
:103640001C4800786871A81DFCF79EFD1A2403E051
:10365000641EA4B2042C04D9281910F8010C002807
:10366000F6D0E01EA87021460F48FCF7CAFE010AFA
:103670002955641CA1B26854491C8AB20A490748FA
:10368000FFF7FFF988F800603988A9F80010BCE757
:1036900038000020C401002006000020C0070020E0
:1036A000040000200A000020820200200C000020FC
:1036B0000200002001000020D6010020054900F092
:1036C00001020A60C0F340024A60C0F380008860D3
:1036D000704700008001224200B1012001490860CA
:1036E00070470000A481214200B101200149086017
:1036F000704700009081214270B503001ED0FCF796
:10370000A9FE294C20B1294A1178814311702CE07F
:103710001846FCF796FE38B125490A7882430A70AC
:10372000207840F0020023E01846FCF784FE0026D3
:1037300028B120490A78824200D10E7070BD1E481F
:1037400000221E4D017817E0A85C984212D1685CF7
:10375000A854685C30B908E068184078685418B11B
:10376000491CC9B26B29F7D36E54207840F0010090
:10377000207070BD521CD2B28A42E5D311E0685C61
:10378000984206D009E068184078685418B1491C7E
:10379000C9B26B29F7D36E5470BD0028FCD0491C08
:1037A000C9B26C29EBD370BD0000002001000020DD
:1037B000020000200C00002003000020D6010020A1
:1037C00010B5FDF7E7FDBDE8104000F001B80000BE
:1037D00070B52B4B1888401C188001241C73188866
:1037E0000A21B0FBF1F201FB1200002846D11A8831
:1037F0004EF66025AA4200D318805A88521C5A807F
:103800005C735A88B2FBF1F601FB1622002A35D10F
:103810005A88AA4200D358809A88521C9A809C7376
:103820009A88B2FBF1F601FB1621002926D199886E
:10383000A94200D39880D988491CD980DC73DA88E2
:103840003C21B2FBF1F601FB1622002A16D1DA88E0
:10385000AA4200D3D8801A89521C1A811C741A8972
:10386000B2FBF1F601FB1621002907D11989A94203
:1038700000D318815889401C58815C7470BD0000C9
:10388000C401002030B595B028216846FCF795FCAE
:1038900014210AA8FCF791FC18210FA8FCF78DFC55
:1038A00009204FF4803100248DE813000120022507
:1038B000CDE9060504900005CDE908106846FEF73D
:1038C000ABFBB0B90F20CDE90A056802CDE90C4089
:1038D00001210AA80E94FEF7A9FA50B912200F9000
:1038E00068031190000214900FA8FEF729FA00282F
:1038F00001D0FCF763FE15B030BD7047F0B56648E7
:1039000000680169C943C9076ED1C168C943C907C5
:103910006AD1891E0161614FB888401C81B20020C4
:10392000B980092900D3B8805D4CD4F80C11E9B3F3
:103930000021CA025B490968C9B300215A4D42EA15
:103940008122D5F8301199B3002142EA4122D5F8FD
:103950002C1171B3002142EA0122D5F8281149B394
:10396000002142EAC112D5F81011D1B3002142EA78
:103970008112D5F81411A9B3002142EA4112D4F8FA
:10398000001181B3002142EA0112D4F8041161B39D
:10399000002142EAC102D4F8081139B3002142EAF9
:1039A0008102D4F8281111B3002104E027E028E0B7
:1039B00029E02AE02BE042EA4103D4F82C1171B34C
:1039C0000021FA880B43394E02EBC20106EB41019C
:1039D000BE88DFF8DCC021F816300121092E2BD279
:1039E00006E016E017E018E026E019E01AE01BE018
:1039F000DFE806F01E23282D32373C414600012126
:103A000097E701219AE701219FE70121A3E701211F
:103A1000A7E70121ABE70121AFE70121B3E705E00B
:103A20000121B6E70121BAE70121BEE70121C8E77C
:103A3000CCF8A011C5F8A401F0BDC5F8A411C5F8D3
:103A4000A001F0BDC5F8A011C5F89C01F0BDC5F8F6
:103A50009C11C5F89801F0BDC5F89811C4F8BC01D7
:103A6000F0BDC4F8BC11C4F8B801F0BDC4F8B81179
:103A7000C4F8B401F0BDC4F8B411C4F8B001F0BD8D
:103A8000C4F8B011CCF8A001521C91B2F9800B29F6
:103A9000F5D3F880F0BD000078070020300000204A
:103AA00000802142088122420000224206060020B6
:103AB00000002142F0B502681C4D1D4E1D4FDFF87D
:103AC00078C01E4B4FF0804EA84209D0984207D0D4
:103AD000704505D0B04203D0B84201D0604503D153
:103AE00022F070044A682243A84209D0984207D0C5
:103AF000704505D0B04203D0B84201D0604503D133
:103B000022F44074CA6822434C6922F080022243A6
:103B100002608A68C2620A688262A84201D0984242
:103B200001D10969016301214161F0BD002C01400F
:103B30000004004000080040000C00400034014038
:103B400010B5406A00218186C184FEF7D5FD10BD05
:103B50000168CA6822F49072CA6001684A6922F05A
:103B600001024A61202180F84210704710B50168B7
:103B7000CA6822F04002CA60202180F84110FEF796
:103B80009FFF002010BD10B590F84210222901D0EF
:103B9000022010BD81684FF48053994201D102691F
:103BA00022B1826A99421BD049B10AE00268816A57
:103BB0005268C2F308020A80816A891C08E0016920
:103BC00071B10168496801F07F011170816A491C77
:103BD0008162818E491E0904090C818603D016E09A
:103BE00001684968F1E70168CA6822F02002CA60EA
:103BF0000168CA6822F48072CA6001684A6922F0CA
:103C000001024A61202180F84210FEF739FF0020AE
:103C100010BD70B50168496890F8422089B2222A27
:103C200001D0022070BD82684FF48054A24201D1BD
:103C3000036953B1038E13B3858E5B1E9D421EDC58
:103C4000836AA24216D08AB112E0028E022A16D3EB
:103C5000838E921E934212DC838E826AC1F3080126
:103C600023F00103D152818E891C07E002690AB159
:103C700001F07F01828E9954818E491C8186FEF766
:103C8000FFFE002070BD000010B504460068016909
:103C9000E26821F4405111430161A16820690143A8
:103CA000606901432068C26841F20C639A430A4389
:103CB000C26020684169A26921F4407111434161E9
:103CC00013492068884202D1FEF75CF901E0FEF753
:103CD00049F900EBC00101EB001061686422890022
:103CE000B0FBF1F1B1FBF2F06FF01803434301EBCD
:103CF0008303322101EB0311B1FBF2F101F0F00279
:103D000002EB001001F00F0108442168886010BD2B
:103D10000038014090F84110212901D0022070475D
:103D20008168B1F5805F01D1016961B1016A4A1C06
:103D30000262026809785160C18C491E0904090CAD
:103D4000C1840AD013E0016A02680988C1F308013E
:103D50005160016A891C0162EEE70168CA6822F0BD
:103D60008002CA600068C16841F04001C160002063
:103D7000704700000148FEF745BD0000C007002065
:103D80000148FEF7BBBC00000808002010B5D0F8C1
:103D9000B42252689047002010BD134610B50A4661
:103DA000002100F039FB002010BD134610B50A4673
:103DB000002100F0CBFB002010BD10B5044680218F
:103DC00000F0AAFB2046BDE81040002100F0A4BB93
:103DD00010B50323C0F85C21C0F89432C0F860210C
:103DE00013460A46002100F017FB002010BD10B555
:103DF00005210023C0F894121A46194600F00CFB66
:103E0000002010BD10B50223C261C0F894320262D6
:103E100013460A46002100F099FB002010BD10B5A2
:103E200004210023C0F894121A46194600F08EFBB4
:103E3000002010BD10B50A46024903A000F0DDF8CD
:103E4000004810BDCC12002048494420436F6E66E4
:103E50006967000012200880004870476000002059
:103E600010B50A46024903A000F0C7F8004810BD8B
:103E7000CC12002048494420496E74657266616323
:103E80006500000004200880004870475C000020A6
:103E900010B50A46024903A000F0AFF8004810BD73
:103EA000CC120020416E616C6F6720447261676FB5
:103EB0006E00000010B50A46024903A000F09DF80C
:103EC000004810BDCC120020506964616E204B6523
:103ED00079626F617264000010B51A2008800A4888
:103EE0000168001D0468001D0068081809D0082238
:103EF0000649FEF7F5FD0549042210312046FEF77C
:103F0000EFFD0248801E10BDE8F7FF1F760000207D
:103F1000F8B504460020ADF8000048880D46010AB7
:103F2000082948D2DFE801F04704091747473D4513
:103F3000D4F8B012207C0A6819E0207C0226002800
:103F4000D4F8B40205D0C16A684688470146467075
:103F50003EE0816AF8E7C0B206282CD2DFE800F024
:103F6000030B1115191DD4F8B002426806E069462A
:103F7000904701462CE0D4F8B0028268DAB1207C88
:103F8000F5E7D4F8B002C268F8E7D4F8B0020269E5
:103F9000F4E7D4F8B0024269F0E7D4F8B0028269DD
:103FA000ECE7207C38B9D4F8B402416B6846884706
:103FB000DFE7207C20B129462046FFF7FEFEF8BD52
:103FC000D4F8B402016B6846884701460720487060
:103FD000BDF8002052B1E88858B1904200D910468F
:103FE000ADF8000082B22046FFF70CFFE8880028F9
:103FF000E5D12046FFF713FFF8BD70B50023002878
:104000001ED00446002502E06D1CEDB2641C26782B
:10401000002EF9D1022404EB450414801278CA540E
:104020005B1C0322CA545B1C002406E0CA545B1CC0
:10403000DAB2401C8C54521CD3B20278002AF5D15B
:1040400070BD01004FF0000004D0012901D0022909
:1040500001D00220704701207047D0F8B80200213B
:1040600001730846704770B50446812100F0D8F806
:104070000025E562D4F8B80218B100F038FCC4F8A5
:10408000B852002070BD00000A210180004870472E
:10409000540100202221018000487047DC000020EC
:1040A0002221018000487047000100202221018068
:1040B000004870472401002010B504464023032225
:1040C000812100F09DF90120E062102000F010FC39
:1040D000C4F8B80218B100210173084610BD0220CF
:1040E00010BD10B5134690F89C42D0F8B822032CAE
:1040F00009D1147B0CB1012010BD012414730A46B0
:10410000812100F023FA002010BD000038B5002204
:10411000D0F8B852ADF8002014460A7812F06002C8
:104120001ED0202A51D14A78921E0A2A4DD2DFE8A9
:1041300002F00F084C4C4C4C4C120B058878286050
:1041400046E00122294631E04888000A68603FE0E5
:104150000122291D2AE0CA882049FFF739FE37E0ED
:104160004A7832B1062A0BD00A2A22D00B2A2CD147
:1041700027E090F89C22032A27D10222694615E005
:104180004A882223B3EB122F05D1CA88642A00D9AA
:104190006422134B09E02123B3EB122F15D1104BEE
:1041A000CA88183B092A00D909221946FFF72AFEB6
:1041B0000EE090F89C22032A07D1012205F10801A4
:1041C000F4E790F89C22032A04D0FFF7F6FD0224BE
:1041D000204638BD8878A860FAE70000100000206B
:1041E0006001002010B580B1D0F8B43213B10023C3
:1041F000C0F8B43209B1C0F8B012012180F89C12A5
:10420000027000F0BBF8002010BD022010BD10B5F8
:10421000D0F8C002FDF7C2F9BDE81040FFF711BFAA
:1042200010B5D0F8C002FDF795F9BDE81040FFF7D2
:1042300008BF2DE9F0411746044651B1D4F8B40245
:1042400042691AB194F89C02032851D00220BDE8BB
:10425000F081D4F89432002504F11400022B03D02D
:10426000042B3AD0C3B33CE0D0E903639E4207D9A4
:10427000F11AC1608AB239462046FFF796FD12E076
:104280008068B0FBF3F103FB110199B9984211D397
:10429000D4F8981288420DD2002211462046FFF72A
:1042A00084FDC4F8985200231A461946204600F0AF
:1042B000B3F816E0D4F8B402C16829B194F89C02AE
:1042C000032801D1204688478021204600F024F9A8
:1042D0002046FFF78CFD04E0FFE78021204600F038
:1042E0001BF994F8A002012804D184F8A05201E03F
:1042F000204690470020AAE770B51546044649B10C
:10430000D4F8B40282691AB194F89C02032830D020
:10431000022070BDD4F8941204F5AA70032902D0CB
:1043200005291ED027E0D0E903318B420BD95B1A57
:10433000C3600846834200D303469AB2294620460A
:10434000FFF72BFD17E0D4F8B402016929B194F806
:104350009C02032801D1204688472046FFF75FFDD5
:1043600009E000200146C4F89402204600F0D4F889
:1043700001E020469047002070BD000010B50446C3
:1043800015481649C0F8E842C4F8C0020160082187
:1043900041600221816000218161C1610162FDF7FC
:1043A000E8FB08B1FCF70AF904F530740022182381
:1043B00011462068FDF79CF85823002280212068D0
:1043C000FDF796F84FF48073002281212068FDF7F5
:1043D0008FF8002010BD0000E0140020005C0040B9
:1043E0000A0601F07F01D0F8C00201EB810100EB69
:1043F000C10002D590F82A00704790F86A01704712
:1044000010B51C461346D0F8C0022246FDF773FAD9
:10441000BDE81040FFF715BE10B5D0F8C002FDF79B
:1044200098FABDE81040FFF70CBE70B500220446B4
:1044300040231146FFF7E4FF40260125C4F86461DC
:104440003346002280212046C4F85851FFF7D8FF98
:104450006662A56184F89C520020C4F894026060F2
:10446000C4F8A402D4F8B80228B1D4F8B4020021E8
:10447000426820469047002070BD90F89C120429A5
:1044800003D190F89D1280F89C120020704710B55F
:1044900090F89C12032904D1D0F8B412C96901B173
:1044A0008847002010BD01740020704710B5D0F877
:1044B000C002FDF7FEFBBDE81040FFF7C2BD70B5BE
:1044C000044600F52A70054600F049F80120C4F8BA
:1044D0009402B4F8AE02C4F8980294F8A82212F03C
:1044E0001F000AD001280DD0022810D002F0800150
:1044F000204600F011F8002070BD2946204600F04B
:104500009CF8F8E72946204600F0CAF9F3E7294667
:10451000204600F01BF9EEE710B5D0F8C002FDF719
:104520002EFABDE81040FFF78CBD10B5D0F8C002E0
:10453000FDF7DAFBBDE81040FFF783BD00F52770FB
:1045400001784170042101700020704710B5D0F847
:10455000C002FDF74BFABDE81040FFF772BD0A78C4
:1045600002704A7842708A78CB7802EB032242804C
:104570000A794B7902EB032282808A79C97902EBAE
:104580000121C18070470246002011B1C2F8B41267
:1045900070470220704710B5D0F8B42202241AB137
:1045A0001268904700B90024204610BD70B50E4631
:1045B0001E4D897804462970012931D894F89C024F
:1045C00002280BD003280FD031462046FFF7F5FB19
:1045D00029782046BDE87040FFF7D8BBD9B1032049
:1045E000616084F89C0209E071B16068884212D071
:1045F000C1B22046FFF7CAFB297861602046FFF769
:10460000CAFF02280CD006E0022084F89C02204653
:104610006160FFF7BBFB2046BDE87040FFF7FFBBC2
:1046200031462046BDE87040FFF7C7BBA000002020
:1046300010B5FFF77AFF002010BD2DE9F0410A7890
:104640004FF0000812F0600208D0202A01D0402A62
:104650006FD1D0F8B422926890476CE04C78002279
:10466000012502260A2C64D2DFE804F03F5B635583
:10467000630805632B28FFF74BFC5CE00446888841
:10468000D0B9C888C0B94888802815D200F07F0703
:1046900094F89C0203280FD084F89E723946204675
:1046A000FFF704FF2046FFF7BAFB17B184F89C62BE
:1046B00041E084F89C523EE020463AE0FFF776FF66
:1046C00039E0CB88012B34D190F89C32012B04D0F7
:1046D000022B02D0032B2CD104E08260012200F1D6
:1046E000080115E00122011D12E090F89C32012B17
:1046F00003D0022B01D0032B1BD1CB88022B18D166
:10470000C260D0F8A41201B1C660022200F10C010F
:10471000FFF778FB0FE0498801290CD1C0F8A452BB
:1047200011E090F89C32012B08D0022B06D0032B0D
:1047300004D0FFF742FB4046BDE8F08149880129DB
:10474000F9D1C0F8A422FFF76AFBF4E72DE9F041A4
:104750000A46044613780027097913F060000AD04E
:10476000202801D0402850D1D4F8B40211468368E3
:104770002046984791E0C3F34110012806D05078B5
:10478000D0B301282AD003283FD107E0D4F8B402DF
:10479000114683682046BDE8F041184794F89C0212
:1047A000022802D0032874D10AE071B3802970D0A6
:1047B0002046FFF7B1FE80212046FFF7ADFE6CE0FA
:1047C000508838B931B1802904D0D08810B920463A
:1047D000FFF7A2FE2046FFF722FB5EE094F89C0262
:1047E0000228E2D0032854D15088A8BB4806F1D053
:1047F0002046FFF70CFDEDE7FFE794F89C0200264A
:10480000022803D0032844D113E042E009B18029F3
:104810003FD10806002801F07F0000EB800004EB88
:10482000800101DA143101E001F5AA7102220E6063
:104830002BE00806002801F00F0000EB800004EBDD
:1048400080000ADA806920B301F07F0000EB80006D
:1048500004EB800514350BE01FE0D0F85801C0B11F
:1048600001F07F0000EB800004EB800505F5AA75E0
:1048700041B1802906D02046FFF7B2FD10B10120DA
:10488000286000E02E60022229462046FFF7BAFA8F
:1048900003E011462046FFF790FA3846BDE8F08164
:1048A00070B5054608780C4610F0600203D0202A47
:1048B00001D0402A16D195F89C22012A03D0022A61
:1048C00001D0032A0ED1207901280BD8D5F8B402E3
:1048D000826828469047E188014306D12846FFF7C1
:1048E0009EFA02E02846FFF768FA002070BD704784
:1048F00000487047CC1400202DE9F0470D780026C1
:1049000030F8252048F68F131A40CB78002B79D049
:10491000012B7DD0022B02D0032B76D0012648F24A
:104920008004224320F825200A7830F8223048F607
:104930008F773B401343234320F822300B7B48F210
:10494000C00548F6BF724CF2800C4BF68F79E3B38A
:104950000B789A4630F8238048F2801308EA07085B
:1049600048EA030820F82A80B0F8503091F8008017
:10497000034403EB0813B1F8088028F00108A3F8FA
:104980000084B0F8503091F80080034403EB081322
:10499000B1F80A8028F00108A3F808844B78002BAE
:1049A0000B7830F823804FEA48487DD0B8F1000FEB
:1049B00007DA30F8238008EA070848EA0C0820F8EC
:1049C00023800B7830F823C000E024E05FEA4C6CD1
:1049D00007D530F823C00CEA070C4CEA050C20F888
:1049E00023C0CB78012B0B7830F8235005EA020561
:1049F0007ED085F02002224320F82320ACE001E0A5
:104A000006E002E042F4007289E742F4C06286E701
:104A100042F4806283E74B7863B3B0F8503091F88A
:104A200000C0034403EB0C13B1F806C02CF0010CDA
:104A3000A3F800C40B7830F823C05FEA4C6C07D5AC
:104A400030F823C00CEA070C4CEA050C20F823C010
:104A5000CB78012B06D0097830F82130134083F051
:104A600020027EE0097830F821301340234320F8FB
:104A7000213079E0B0F850200B78024402EB0312A9
:104A8000CB8823F00103A2F80834B0F850200B784B
:104A9000024402EB03120B6902F20C4263B13E2B9B
:104AA00012D85D08DB0700E02FE000D06D1C4FF648
:104AB000FF7303EA852311E0138823F4F84313807E
:104AC000138843F4004309E04FEA5315DB0601D194
:104AD000A5F101054FF4004343EA852313800A78CA
:104AE00030F822305B0408D530F822303B4000E03B
:104AF0002FE043EA0C0320F82230097830F8212017
:104B000002EA090282F440522BE0B8F1000F07DA02
:104B100030F8238008EA070848EA0C0820F82380C8
:104B20000B7830F823C05FEA4C6C07D530F823C00F
:104B30000CEA070C4CEA050C20F823C00B7830F87F
:104B4000235005EA090585F44055254320F82350F4
:104B500088E7254320F82350097830F8212002EA1D
:104B60000902224320F821203046BDE8F0870020CA
:104B700070472DE9F04391F80C804C780A7848F69C
:104B8000BF774BF68F7948F2800548F2C0064CF2A9
:104B9000800C48F68F73B8F1000F29D0002C30F844
:104BA00022404FEA444448D0002C06DA30F8224034
:104BB0001C4044EA0C0420F822400A7830F82240D5
:104BC000640605D530F822401C40344320F82240CA
:104BD0000A7830F822401C4044EA0C0420F82240B5
:104BE0000A7830F822303B402B4320F8223019E07D
:104BF000002C30F822400CD0640605D530F8224055
:104C00001C40344320F82240097830F821203A40F3
:104C10000DE0640406D530F822401C4044EA0C0440
:104C200020F82240097830F8212002EA09022A43BC
:104C300020F821200020BDE8F083002C06DA30F8AF
:104C400022401C4044EA0C0420F822400A7830F844
:104C50002240640605D530F822401C40344320F839
:104C600022400A7830F822401C40344320F8224089
:104C70000A7830F8223003EA09032B4320F8223067
:104C8000C2E70020704700207047012120F8401F34
:104C900000210180818001820846704730F8401F62
:104CA00021F43F410180002070470020704730B55B
:104CB0000A7BA2BB4A7848F68F75002A0A7848F228
:104CC000800430F8223015D05B0607D530F822304A
:104CD0002B4048F2C0052B4320F82230CA78012A25
:104CE0001DD0097830F8212048F6BF731A4082F0B1
:104CF000200211E05B0407D530F822302B404CF243
:104D000080052B4320F82230097830F821204BF61B
:104D10008F731A4082F44052224320F82120002051
:104D200030BD10B54A780978002A48F2800330F87F
:104D3000212005D048F6BF74224082F0100204E022
:104D40004BF68F74224082F480521A4320F82120BF
:104D5000002010BD2DE9F04F0C464A78097B05462E
:104D60004FF0000948F68F7A48F2800B4FF6FF7734
:104D70004FF40048012A09D000297DD0E0780228AC
:104D80007BD001287AD00120BDE8F08FA669206988
:104D9000864200D9064689B1E17802291DD02078E3
:104DA00035F8201049060029B5F85010294401EBC8
:104DB000001071DAA0F80C64628928E1B3B2E288CD
:104DC0002846616900F05DFAB5F850002178284462
:104DD00000EB0110A0F8046435E1216A81422078DB
:104DE00076D935F8201048F2801201EA0A01114301
:104DF00025F82010206AA0EB06002062207835F804
:104E000020104906617876D511B1012921D027E01B
:104E1000B5F85010294401EB001000F20C404EB1DF
:104E20003E2E0FD87108F20700D0491C07EA8121F5
:104E3000018015E0018821F4F8410180018841F4E6
:104E40000041F5E77109F20600D1491E48EA8121C7
:104E5000EEE7B5F85020511901EB0010A0F80C64F2
:104E60006289B3B22846616900F00BFA6069304488
:104E700060612169206A02E0EEE00DE17BE1884299
:104E800002D9801B206202E00646C4F820906078B8
:104E900018B1012824D02BE0B6E0B5F850002178F5
:104EA000284400EB011000F204404EB13E2E10D811
:104EB0007108F20700D0491C07EA8121018017E040
:104EC000018821F4F8410180018841F40041F5E7AF
:104ED00086E07109F20600D1491E48EA8121EDE71A
:104EE000B5F850002178284400EB0110A0F80464C4
:104EF00022896FE0FFE711B1012921D027E0B5F841
:104F00005010294401EB001000F204404EB13E2E37
:104F10000FD87108F20700D0491C07EA81210180EF
:104F200015E0018821F4F8410180018841F4004135
:104F3000F5E77109F20600D1491E48EA8121EEE742
:104F4000B5F85010294401EB0010A0F80464228940
:104F5000B3B22846616900F094F960693044606139
:104F60002169206A884202D9801B206202E006463D
:104F7000C4F82090607810B1012822D029E0B5F85B
:104F800050002178284400EB011000F20C404EB193
:104F90003E2E0FD87108F20700D0491C07EA812184
:104FA000018016E0018821F4F8410180018841F474
:104FB0000041F5E77109F20600D1491E48EA812156
:104FC000EEE7B5F850104819217800EB0110A0F871
:104FD0000C646289B3B22846616900F052F932E08C
:104FE00035F8202048F68F631A4042EA0B0225F874
:104FF0002020B5F850002278284400EB02108BB234
:10500000A0F804342289E6E7A0F804642289B3B248
:105010002846616900F035F9607810B1012808D0A0
:1050200011E0207835F8201048F2C00201EA0A01A8
:1050300006E0207835F820104CF2800201EA0A01DF
:10504000114325F82010207835F8201048F6BF725B
:10505000114081F03001E1E0A1692069814202D96B
:10506000091AA161B8E00846C4F81890B4E00888AD
:1050700020F4F8400880088840F400400AE03E2808
:1050800078D84208C00700D0521C07EA822001E00D
:1050900048EA82200880B9E092B9B5F8500021783A
:1050A000284400EB0110216900F2044069B13E2957
:1050B00013D84A08C90700D0521C07EA8221018090
:1050C000607888B1012834D03DE0018821F4F841AE
:1050D0000180018841F40041F1E74A09C90600D185
:1050E000521E48EA8221EAE7B5F8500021782844A8
:1050F00000EB0110216900F20C4049B13E290FD8A4
:105100004A08C90700D0521C07EA822101801AE030
:10511000018821F4F8410180018841F40041F5E75C
:105120004FEA5112C90601D1A2F1010248EA8221D7
:10513000ECE7B5F8501001EB0500217800EB011009
:10514000218AA0F80C14E069B0B3217835F8210069
:10515000420401D5420603D444F24002104255D124
:1051600035F8210048F2C00200EA0A00104325F891
:1051700021004BE03CE0A1692069814202D9091A73
:10518000A16102E00846C4F818908AB9B5F8501039
:105190002278294401EB021101F2044168B13E2852
:1051A00013D84208C30700D0521C07EA82220A80A3
:1051B000617889B1012921D028E00A8822F4F842D7
:1051C0000A800A8842F40042F1E74209C30600D18E
:1051D000521E48EA8222EAE7B5F8501022782944A4
:1051E00001EB021101F20C4100287FF448AF3EE7C9
:1051F0004209C0067FF44CAF521E49E7B5F8502073
:105200005119227801EB0211A1F80C04207835F82D
:1052100020104BF68F72114081F4405141EA0B018E
:1052200025F820100020AFE50021403081804FF4A8
:105230003F410180002070470148FCF7F0BB0000AF
:10524000E0140020B0F84400704710B500EB4200B5
:105250005C0800F5806007D030F8042B0A70120A51
:105260004A70891C641EF7D1DA0701D000880870E3
:1052700010BD0020704711B98021A0F84C1000200B
:10528000704710B55B1C00EB42005B0800F58060C6
:1052900008D00A784C78891C42EA042220F8042BB2
:1052A0005B1EF6D110BD000010B5104C618E0029B8
:1052B0001AD0E06A02785A2A14D18278521D91429B
:1052C00010D1891E89B2FBF79CF8628EE16A0A440C
:1052D00032F8022C52BA424004D14878012801D158
:1052E000FBF710FA0020608610BD0000C007002008
:1052F000FCF7ECF8FCE700000907090E002801DBC9
:10530000034A02E0034A00F00F0081547047000096
:1053100000E400E014ED00E002E008C8121F08C13C
:10532000002AFAD170477047002001E001C1121F26
:10533000002AFBD17047000008B5FCF733F8FEF7F0
:10534000A1FAFDF7D1FC4A48416941F001014161F0
:105350004069012200F00100009011460D20FCF789
:1053600083F80D20FCF772F8FDF798FCFDF780FD3F
:10537000414840494FF4E13600240160C0E901642E
:105380000C25C460C0E904458461C461FDF7ADFA31
:1053900088B9FDF7AFFDFDF78DFD37483749483037
:1053A0000160C0E90164C460C0E904458461C4616E
:1053B000FDF79BFA08B1FBF701F9FEF76DF82E48EF
:1053C0004838FDF763F94FF496732D4A2D492A4862
:1053D000FDF726FB2D482C492D4D90F89C022A7B89
:1053E00002B12C736A7B12B16C73032810D0AA7BB4
:1053F00002B1AC73EA7B6AB1EC73EA88052A09D37F
:10540000022008700120FEF767F9FDF797FD09E01B
:105410000120F6E72A7C02B12C746A7C002ADED0D7
:105420006C74DCE7287B10B12C73FDF787FB687B7D
:1054300068B16C73FFF738FFFAF772FFFDF76CFB8A
:105440006888C00703D1FAF7D7FFFEF78FF8A87B6B
:1054500000B1AC73E87B10B1EC73FDF76FFD287CF5
:1054600000B12C74687C0028DCD06C74DAE7000092
:105470000010024000380140C007002000440040F6
:10548000DA040020AE0300200D00002008100020E8
:10549000C4010020575653540058E0E1392B3529F8
:1054A0005E554B4E5B63E31D04141E3A61484A4D42
:1054B0005A62E21B161A1F3B6046494C594F2C0694
:1054C0000708203C5D472A31525100190915213D3A
:1054D0005C452E302850E4050A17223E5F442D2FEC
:1054E00034E565110B1C233F004327133338E710C5
:1054F0000D182440004226120F37E6360E0C2541C7
:10550000575653540058E0E1392B35295E554B4E20
:105510005B63E31D04141E3A61484A4D5A62E21B64
:10552000161A1F3B6046494C594F2C060708203C71
:105530005D472A31525100190915213D5C452E3035
:105540002850E4050A17223E5F442D2F34E56511EB
:105550000B1C233F004327133338E7100D1824405A
:10556000004226120F37E6360E0C254100000000DF
:105570000000000001020304060708090000000003
:1055800001020304A455000800000020C40100002B
:10559000F401000890560008C40100202C1A0000F5
:1055A0002853000831023C0613553E1B0885041A97
:1055B00091041AB5041AD9041A35041A610417049F
:1055C00003090412013202164083042B57260201FC
:1055D000020301031A1A03191F1182105324F41332
:1055E000B9401B086704130D4182081A5B100110B3
:1055F0001AA1141A95041AAD041A89041409022276
:105600001301011DE0320904591A030B1509211178
:1056100001140122642E07058103406D091F240A2D
:1056200021072429486912314B0A06F429CC1014A9
:1056300005010906A101850175019508050719E015
:1056400029E715180B2501810275089501810306CC
:105650001A3D16111B29651613FF81192618150509
:105660000508190129059102750395019103C005EB
:105670000C0901412A0241381109E209E909EA0944
:10568000CD09B709B609B509E24B030062C00000B5
:0400000508000131BD
:00000001FF
